{
  "contractName": "Certificate",
  "abi": [
    {
      "constant": true,
      "inputs": [
        {
          "name": "",
          "type": "address"
        },
        {
          "name": "",
          "type": "uint256"
        }
      ],
      "name": "certificates",
      "outputs": [
        {
          "name": "hash",
          "type": "string"
        },
        {
          "name": "certificate_string",
          "type": "string"
        }
      ],
      "payable": false,
      "stateMutability": "view",
      "type": "function"
    },
    {
      "constant": true,
      "inputs": [
        {
          "name": "",
          "type": "uint256"
        }
      ],
      "name": "certihashes",
      "outputs": [
        {
          "name": "",
          "type": "bytes32"
        }
      ],
      "payable": false,
      "stateMutability": "view",
      "type": "function"
    },
    {
      "constant": true,
      "inputs": [
        {
          "name": "",
          "type": "uint256"
        }
      ],
      "name": "Persons",
      "outputs": [
        {
          "name": "id",
          "type": "address"
        },
        {
          "name": "no",
          "type": "uint256"
        }
      ],
      "payable": false,
      "stateMutability": "view",
      "type": "function"
    },
    {
      "constant": true,
      "inputs": [],
      "name": "personcount",
      "outputs": [
        {
          "name": "",
          "type": "uint256"
        }
      ],
      "payable": false,
      "stateMutability": "view",
      "type": "function"
    },
    {
      "constant": true,
      "inputs": [
        {
          "name": "",
          "type": "address"
        }
      ],
      "name": "keyDetails",
      "outputs": [
        {
          "name": "",
          "type": "uint256"
        }
      ],
      "payable": false,
      "stateMutability": "view",
      "type": "function"
    },
    {
      "inputs": [],
      "payable": true,
      "stateMutability": "payable",
      "type": "constructor"
    },
    {
      "constant": false,
      "inputs": [
        {
          "name": "p",
          "type": "address"
        },
        {
          "name": "certi",
          "type": "string"
        },
        {
          "name": "private_key",
          "type": "uint256"
        }
      ],
      "name": "HashCalculation",
      "outputs": [],
      "payable": true,
      "stateMutability": "payable",
      "type": "function"
    },
    {
      "constant": false,
      "inputs": [
        {
          "name": "p",
          "type": "address"
        },
        {
          "name": "hash",
          "type": "string"
        },
        {
          "name": "certi_string",
          "type": "string"
        }
      ],
      "name": "addtoArray",
      "outputs": [],
      "payable": true,
      "stateMutability": "payable",
      "type": "function"
    }
  ],
  "bytecode": "0x6080604052610c37600455610bc8600555600060085560006009556003600160003373ffffffffffffffffffffffffffffffffffffffff1673ffffffffffffffffffffffffffffffffffffffff1681526020019081526020016000208190555060c86001600073397b77a261b9480235a46d92b5d57db35cf069ef73ffffffffffffffffffffffffffffffffffffffff1673ffffffffffffffffffffffffffffffffffffffff1681526020019081526020016000208190555060c86001600073bee549cad789d1627d1d2c88e67d3d855d1cfcf973ffffffffffffffffffffffffffffffffffffffff1673ffffffffffffffffffffffffffffffffffffffff1681526020019081526020016000208190555060c86001600073a5814552d0c2a50fdc99d3e9b419ac5c04b975ea73ffffffffffffffffffffffffffffffffffffffff1673ffffffffffffffffffffffffffffffffffffffff1681526020019081526020016000208190555060c86001600073916c40c84d5a0fd4a3d91f025553f8592d9ea00373ffffffffffffffffffffffffffffffffffffffff1673ffffffffffffffffffffffffffffffffffffffff16815260200190815260200160002081905550620001dd33620002ef640100000000026401000000009004565b62000263336040805190810160405280600881526020017f41424344313233340000000000000000000000000000000000000000000000008152506040805190810160405280600d81526020017f736466647366676667313233340000000000000000000000000000000000000081525062000399640100000000026401000000009004565b620002e9336040805190810160405280600881526020017f50515253313233340000000000000000000000000000000000000000000000008152506040805190810160405280600b81526020017f736673646764673132333400000000000000000000000000000000000000000081525062000399640100000000026401000000009004565b620005d1565b60096000815480929190600101919050555060408051908101604052808273ffffffffffffffffffffffffffffffffffffffff168152602001600081525060036000600954815260200190815260200160002060008201518160000160006101000a81548173ffffffffffffffffffffffffffffffffffffffff021916908373ffffffffffffffffffffffffffffffffffffffff1602179055506020820151816001015590505050565b6000600190505b600954811115156200042b578373ffffffffffffffffffffffffffffffffffffffff166003600083815260200190815260200160002060000160009054906101000a900473ffffffffffffffffffffffffffffffffffffffff1673ffffffffffffffffffffffffffffffffffffffff1614156200041d576200042b565b8080600101915050620003a0565b6009548111156200043b57600080fd5b6040805190810160405280848152602001838152506000808673ffffffffffffffffffffffffffffffffffffffff1673ffffffffffffffffffffffffffffffffffffffff1681526020019081526020016000206003600084815260200190815260200160002060010154600a81101515620004b257fe5b600202016000820151816000019080519060200190620004d492919062000522565b506020820151816001019080519060200190620004f392919062000522565b509050506001600360008381526020019081526020016000206001016000828254019250508190555050505050565b828054600181600116156101000203166002900490600052602060002090601f016020900481019282601f106200056557805160ff191683800117855562000596565b8280016001018555821562000596579182015b828111156200059557825182559160200191906001019062000578565b5b509050620005a59190620005a9565b5090565b620005ce91905b80821115620005ca576000816000905550600101620005b0565b5090565b90565b61097780620005e16000396000f300608060405260043610610083576000357c0100000000000000000000000000000000000000000000000000000000900463ffffffff16806346f3141c14610088578063749535a7146101ba5780639a887f5814610203578063b8ea86bd14610277578063b8fbd40d146102a2578063db9a0ff714610364578063e9611958146103ea575b600080fd5b34801561009457600080fd5b506100d3600480360381019080803573ffffffffffffffffffffffffffffffffffffffff16906020019092919080359060200190929190505050610441565b604051808060200180602001838103835285818151815260200191508051906020019080838360005b838110156101175780820151818401526020810190506100fc565b50505050905090810190601f1680156101445780820380516001836020036101000a031916815260200191505b50838103825284818151815260200191508051906020019080838360005b8381101561017d578082015181840152602081019050610162565b50505050905090810190601f1680156101aa5780820380516001836020036101000a031916815260200191505b5094505050505060405180910390f35b3480156101c657600080fd5b506101e5600480360381019080803590602001909291905050506105a7565b60405180826000191660001916815260200191505060405180910390f35b34801561020f57600080fd5b5061022e600480360381019080803590602001909291905050506105bf565b604051808373ffffffffffffffffffffffffffffffffffffffff1673ffffffffffffffffffffffffffffffffffffffff1681526020018281526020019250505060405180910390f35b34801561028357600080fd5b5061028c610603565b6040518082815260200191505060405180910390f35b610362600480360381019080803573ffffffffffffffffffffffffffffffffffffffff169060200190929190803590602001908201803590602001908080601f0160208091040260200160405190810160405280939291908181526020018383808284378201915050505050509192919290803590602001908201803590602001908080601f0160208091040260200160405190810160405280939291908181526020018383808284378201915050505050509192919290505050610609565b005b6103e8600480360381019080803573ffffffffffffffffffffffffffffffffffffffff169060200190929190803590602001908201803590602001908080601f016020809104026020016040519081016040528093929190818152602001838380828437820191505050505050919291929080359060200190929190505050610788565b005b3480156103f657600080fd5b5061042b600480360381019080803573ffffffffffffffffffffffffffffffffffffffff16906020019092919050505061088e565b6040518082815260200191505060405180910390f35b600060205281600052604060002081600a8110151561045c57fe5b6002020160009150915050806000018054600181600116156101000203166002900480601f0160208091040260200160405190810160405280929190818152602001828054600181600116156101000203166002900480156104ff5780601f106104d4576101008083540402835291602001916104ff565b820191906000526020600020905b8154815290600101906020018083116104e257829003601f168201915b505050505090806001018054600181600116156101000203166002900480601f01602080910402602001604051908101604052809291908181526020018280546001816001161561010002031660029004801561059d5780601f106105725761010080835404028352916020019161059d565b820191906000526020600020905b81548152906001019060200180831161058057829003601f168201915b5050505050905082565b60026020528060005260406000206000915090505481565b60036020528060005260406000206000915090508060000160009054906101000a900473ffffffffffffffffffffffffffffffffffffffff16908060010154905082565b60095481565b6000600190505b60095481111515610697578373ffffffffffffffffffffffffffffffffffffffff166003600083815260200190815260200160002060000160009054906101000a900473ffffffffffffffffffffffffffffffffffffffff1673ffffffffffffffffffffffffffffffffffffffff16141561068a57610697565b8080600101915050610610565b6009548111156106a657600080fd5b6040805190810160405280848152602001838152506000808673ffffffffffffffffffffffffffffffffffffffff1673ffffffffffffffffffffffffffffffffffffffff1681526020019081526020016000206003600084815260200190815260200160002060010154600a8110151561071c57fe5b60020201600082015181600001908051906020019061073c9291906108a6565b5060208201518160010190805190602001906107599291906108a6565b509050506001600360008381526020019081526020016000206001016000828254019250508190555050505050565b600160003373ffffffffffffffffffffffffffffffffffffffff1673ffffffffffffffffffffffffffffffffffffffff1681526020019081526020016000205460078190555060055481600754028115156107df57fe5b0660068190555060016006541415156107f757600080fd5b600860008154809291906001019190505550816040518082805190602001908083835b60208310151561083f578051825260208201915060208101905060208303925061081a565b6001836020036101000a03801982511681845116808217855250505050505090500191505060405180910390206002600060085481526020019081526020016000208160001916905550505050565b60016020528060005260406000206000915090505481565b828054600181600116156101000203166002900490600052602060002090601f016020900481019282601f106108e757805160ff1916838001178555610915565b82800160010185558215610915579182015b828111156109145782518255916020019190600101906108f9565b5b5090506109229190610926565b5090565b61094891905b8082111561094457600081600090555060010161092c565b5090565b905600a165627a7a72305820e0a6a316250227f57395bf29104db5f96b1f51cfecc9caf846415e27ca5a34290029",
  "source": "pragma solidity ^0.4.17;\r\ncontract Certificate {\r\n\r\n    struct Person {\r\n        address id;\r\n        uint no;\r\n\r\n    }\r\n\r\n    struct certi {\r\n        string hash;\r\n        string certificate_string;\r\n    }\r\n        \r\n    mapping(address => certi[10]) public certificates;\r\n    \r\n    mapping(address => uint) public keyDetails;\r\n    \r\n    mapping(uint => bytes32) public certihashes;\r\n    \r\n    mapping(uint => Person) public Persons;\r\n\r\n    uint n=3127;\r\n    uint phin=3016;\r\n    \r\n    uint remainder;\r\n    uint pk;\r\n    \r\n    uint certicount=0;\r\n    uint public personcount=0;\r\n\r\n    function Certificate() public payable{\r\n        keyDetails[msg.sender]=3;\r\n        keyDetails[0x397B77A261B9480235A46D92b5D57db35cF069ef]=200;\r\n        keyDetails[0xbeE549Cad789D1627D1d2c88E67d3D855D1cfCF9]=200;\r\n        keyDetails[0xA5814552D0c2A50fDC99D3e9b419aC5c04B975Ea]=200;\r\n        keyDetails[0x916c40C84d5A0FD4a3d91f025553f8592D9eA003]=200;\r\n        addPerson(msg.sender);\r\n        addtoArray(msg.sender,\"ABCD1234\",\"sdfdsfgfg1234\");\r\n        addtoArray(msg.sender,\"PQRS1234\",\"sfsdgdg1234\");\r\n    }\r\n\r\n    function addPerson(address _p) private{\r\n        personcount ++;\r\n        Persons[personcount] = Person(_p,0);\r\n    }\r\n    \r\n    function HashCalculation(address p,string certi, uint private_key) public payable{    \r\n        \r\n        pk = keyDetails[msg.sender];\r\n        remainder = (pk*private_key)%phin;\r\n        if(remainder!=1)\r\n        {\r\n            revert();\r\n        }\r\n        certicount++;\r\n        certihashes[certicount]=keccak256(certi);\r\n\r\n    }\r\n    \r\n    function addtoArray(address p, string hash, string certi_string) public payable{\r\n\r\n        for(uint i=1;i<=personcount;i++)\r\n        {\r\n            if(Persons[i].id==p)\r\n            {\r\n                break;\r\n            }\r\n        }\r\n        if(i>personcount)\r\n        {\r\n            revert();\r\n        }\r\n\r\n        certificates[p][Persons[i].no]=certi(hash,certi_string);\r\n        Persons[i].no+=1;\r\n        \r\n    }\r\n\r\n\r\n    \r\n}\r\n",
  "sourcePath": "G:\\Blockchain\\Certification\\contracts\\Certificate.sol",
  "compiler": {
    "name": "solc",
    "version": "0.4.24+commit.e67f0147.Emscripten.clang"
  },
  "schemaVersion": "2.0.1",
  "updatedAt": "2019-01-04T15:14:36.288Z"
}