{
  "contractName": "Certificate",
  "abi": [
    {
      "constant": true,
      "inputs": [
        {
          "name": "",
          "type": "address"
        },
        {
          "name": "",
          "type": "uint256"
        }
      ],
      "name": "certificates",
      "outputs": [
        {
          "name": "hash",
          "type": "string"
        },
        {
          "name": "certificate_string",
          "type": "string"
        }
      ],
      "payable": false,
      "stateMutability": "view",
      "type": "function"
    },
    {
      "constant": true,
      "inputs": [
        {
          "name": "",
          "type": "uint256"
        }
      ],
      "name": "Persons",
      "outputs": [
        {
          "name": "id",
          "type": "address"
        },
        {
          "name": "no",
          "type": "uint256"
        }
      ],
      "payable": false,
      "stateMutability": "view",
      "type": "function"
    },
    {
      "constant": true,
      "inputs": [],
      "name": "personcount",
      "outputs": [
        {
          "name": "",
          "type": "uint256"
        }
      ],
      "payable": false,
      "stateMutability": "view",
      "type": "function"
    },
    {
      "constant": true,
      "inputs": [
        {
          "name": "",
          "type": "uint256"
        }
      ],
      "name": "Verifiers",
      "outputs": [
        {
          "name": "id",
          "type": "address"
        },
        {
          "name": "no",
          "type": "uint256"
        }
      ],
      "payable": false,
      "stateMutability": "view",
      "type": "function"
    },
    {
      "constant": true,
      "inputs": [
        {
          "name": "",
          "type": "address"
        }
      ],
      "name": "keyDetails",
      "outputs": [
        {
          "name": "",
          "type": "uint256"
        }
      ],
      "payable": false,
      "stateMutability": "view",
      "type": "function"
    },
    {
      "constant": true,
      "inputs": [
        {
          "name": "",
          "type": "address"
        },
        {
          "name": "",
          "type": "uint256"
        }
      ],
      "name": "verifiers",
      "outputs": [
        {
          "name": "hash",
          "type": "string"
        },
        {
          "name": "certificate_string",
          "type": "string"
        }
      ],
      "payable": false,
      "stateMutability": "view",
      "type": "function"
    },
    {
      "constant": true,
      "inputs": [],
      "name": "vercount",
      "outputs": [
        {
          "name": "",
          "type": "uint256"
        }
      ],
      "payable": false,
      "stateMutability": "view",
      "type": "function"
    },
    {
      "inputs": [],
      "payable": true,
      "stateMutability": "payable",
      "type": "constructor"
    },
    {
      "constant": false,
      "inputs": [
        {
          "name": "private_key",
          "type": "uint256"
        }
      ],
      "name": "HashCalculation",
      "outputs": [],
      "payable": true,
      "stateMutability": "payable",
      "type": "function"
    },
    {
      "constant": false,
      "inputs": [
        {
          "name": "p",
          "type": "address"
        },
        {
          "name": "hash",
          "type": "string"
        },
        {
          "name": "certi_string",
          "type": "string"
        }
      ],
      "name": "addtoArray",
      "outputs": [],
      "payable": true,
      "stateMutability": "payable",
      "type": "function"
    },
    {
      "constant": false,
      "inputs": [
        {
          "name": "p",
          "type": "address"
        },
        {
          "name": "hash",
          "type": "string"
        },
        {
          "name": "certi_string",
          "type": "string"
        }
      ],
      "name": "addCertitoVerifier",
      "outputs": [],
      "payable": true,
      "stateMutability": "payable",
      "type": "function"
    }
  ],
  "bytecode": "0x6080604052610c37600555610bc860065560006009556000600a556003600260003373ffffffffffffffffffffffffffffffffffffffff1673ffffffffffffffffffffffffffffffffffffffff1681526020019081526020016000208190555060c86002600073397b77a261b9480235a46d92b5d57db35cf069ef73ffffffffffffffffffffffffffffffffffffffff1673ffffffffffffffffffffffffffffffffffffffff1681526020019081526020016000208190555060c86002600073bee549cad789d1627d1d2c88e67d3d855d1cfcf973ffffffffffffffffffffffffffffffffffffffff1673ffffffffffffffffffffffffffffffffffffffff1681526020019081526020016000208190555060c86002600073a5814552d0c2a50fdc99d3e9b419ac5c04b975ea73ffffffffffffffffffffffffffffffffffffffff1673ffffffffffffffffffffffffffffffffffffffff1681526020019081526020016000208190555060c86002600073916c40c84d5a0fd4a3d91f025553f8592d9ea00373ffffffffffffffffffffffffffffffffffffffff1673ffffffffffffffffffffffffffffffffffffffff168152602001908152602001600020819055506101db336101f8640100000000026401000000009004565b6101f3336102a2640100000000026401000000009004565b61034c565b60096000815480929190600101919050555060408051908101604052808273ffffffffffffffffffffffffffffffffffffffff168152602001600081525060036000600954815260200190815260200160002060008201518160000160006101000a81548173ffffffffffffffffffffffffffffffffffffffff021916908373ffffffffffffffffffffffffffffffffffffffff1602179055506020820151816001015590505050565b600a6000815480929190600101919050555060408051908101604052808273ffffffffffffffffffffffffffffffffffffffff168152602001600081525060046000600a54815260200190815260200160002060008201518160000160006101000a81548173ffffffffffffffffffffffffffffffffffffffff021916908373ffffffffffffffffffffffffffffffffffffffff1602179055506020820151816001015590505050565b610e008061035b6000396000f3006080604052600436106100a4576000357c0100000000000000000000000000000000000000000000000000000000900463ffffffff16806346f3141c146100a95780639a887f58146101db578063ae5943b21461024f578063b8ea86bd14610311578063b8fbd40d1461033c578063bbc5523a146103fe578063db475c2314610472578063e961195814610492578063f2afef3f146104e9578063fe680f6c1461061b575b600080fd5b3480156100b557600080fd5b506100f4600480360381019080803573ffffffffffffffffffffffffffffffffffffffff16906020019092919080359060200190929190505050610646565b604051808060200180602001838103835285818151815260200191508051906020019080838360005b8381101561013857808201518184015260208101905061011d565b50505050905090810190601f1680156101655780820380516001836020036101000a031916815260200191505b50838103825284818151815260200191508051906020019080838360005b8381101561019e578082015181840152602081019050610183565b50505050905090810190601f1680156101cb5780820380516001836020036101000a031916815260200191505b5094505050505060405180910390f35b3480156101e757600080fd5b50610206600480360381019080803590602001909291905050506107ac565b604051808373ffffffffffffffffffffffffffffffffffffffff1673ffffffffffffffffffffffffffffffffffffffff1681526020018281526020019250505060405180910390f35b61030f600480360381019080803573ffffffffffffffffffffffffffffffffffffffff169060200190929190803590602001908201803590602001908080601f0160208091040260200160405190810160405280939291908181526020018383808284378201915050505050509192919290803590602001908201803590602001908080601f01602080910402602001604051908101604052809392919081815260200183838082843782019150505050505091929192905050506107f0565b005b34801561031d57600080fd5b5061032661096f565b6040518082815260200191505060405180910390f35b6103fc600480360381019080803573ffffffffffffffffffffffffffffffffffffffff169060200190929190803590602001908201803590602001908080601f0160208091040260200160405190810160405280939291908181526020018383808284378201915050505050509192919290803590602001908201803590602001908080601f0160208091040260200160405190810160405280939291908181526020018383808284378201915050505050509192919290505050610975565b005b34801561040a57600080fd5b5061042960048036038101908080359060200190929190505050610af5565b604051808373ffffffffffffffffffffffffffffffffffffffff1673ffffffffffffffffffffffffffffffffffffffff1681526020018281526020019250505060405180910390f35b61049060048036038101908080359060200190929190505050610b39565b005b34801561049e57600080fd5b506104d3600480360381019080803573ffffffffffffffffffffffffffffffffffffffff169060200190929190505050610bab565b6040518082815260200191505060405180910390f35b3480156104f557600080fd5b50610534600480360381019080803573ffffffffffffffffffffffffffffffffffffffff16906020019092919080359060200190929190505050610bc3565b604051808060200180602001838103835285818151815260200191508051906020019080838360005b8381101561057857808201518184015260208101905061055d565b50505050905090810190601f1680156105a55780820380516001836020036101000a031916815260200191505b50838103825284818151815260200191508051906020019080838360005b838110156105de5780820151818401526020810190506105c3565b50505050905090810190601f16801561060b5780820380516001836020036101000a031916815260200191505b5094505050505060405180910390f35b34801561062757600080fd5b50610630610d29565b6040518082815260200191505060405180910390f35b600160205281600052604060002081600a8110151561066157fe5b6002020160009150915050806000018054600181600116156101000203166002900480601f0160208091040260200160405190810160405280929190818152602001828054600181600116156101000203166002900480156107045780601f106106d957610100808354040283529160200191610704565b820191906000526020600020905b8154815290600101906020018083116106e757829003601f168201915b505050505090806001018054600181600116156101000203166002900480601f0160208091040260200160405190810160405280929190818152602001828054600181600116156101000203166002900480156107a25780601f10610777576101008083540402835291602001916107a2565b820191906000526020600020905b81548152906001019060200180831161078557829003601f168201915b5050505050905082565b60036020528060005260406000206000915090508060000160009054906101000a900473ffffffffffffffffffffffffffffffffffffffff16908060010154905082565b6000600190505b600a548111151561087e578373ffffffffffffffffffffffffffffffffffffffff166004600083815260200190815260200160002060000160009054906101000a900473ffffffffffffffffffffffffffffffffffffffff1673ffffffffffffffffffffffffffffffffffffffff1614156108715761087e565b80806001019150506107f7565b600a5481111561088d57600080fd5b6040805190810160405280848152602001838152506000808673ffffffffffffffffffffffffffffffffffffffff1673ffffffffffffffffffffffffffffffffffffffff1681526020019081526020016000206004600084815260200190815260200160002060010154600a8110151561090357fe5b600202016000820151816000019080519060200190610923929190610d2f565b506020820151816001019080519060200190610940929190610d2f565b509050506001600460008381526020019081526020016000206001016000828254019250508190555050505050565b60095481565b6000600190505b60095481111515610a03578373ffffffffffffffffffffffffffffffffffffffff166003600083815260200190815260200160002060000160009054906101000a900473ffffffffffffffffffffffffffffffffffffffff1673ffffffffffffffffffffffffffffffffffffffff1614156109f657610a03565b808060010191505061097c565b600954811115610a1257600080fd5b604080519081016040528084815260200183815250600160008673ffffffffffffffffffffffffffffffffffffffff1673ffffffffffffffffffffffffffffffffffffffff1681526020019081526020016000206003600084815260200190815260200160002060010154600a81101515610a8957fe5b600202016000820151816000019080519060200190610aa9929190610d2f565b506020820151816001019080519060200190610ac6929190610d2f565b509050506001600360008381526020019081526020016000206001016000828254019250508190555050505050565b60046020528060005260406000206000915090508060000160009054906101000a900473ffffffffffffffffffffffffffffffffffffffff16908060010154905082565b600260003373ffffffffffffffffffffffffffffffffffffffff1673ffffffffffffffffffffffffffffffffffffffff168152602001908152602001600020546008819055506006548160085402811515610b9057fe5b066007819055506001600754141515610ba857600080fd5b50565b60026020528060005260406000206000915090505481565b600060205281600052604060002081600a81101515610bde57fe5b6002020160009150915050806000018054600181600116156101000203166002900480601f016020809104026020016040519081016040528092919081815260200182805460018160011615610100020316600290048015610c815780601f10610c5657610100808354040283529160200191610c81565b820191906000526020600020905b815481529060010190602001808311610c6457829003601f168201915b505050505090806001018054600181600116156101000203166002900480601f016020809104026020016040519081016040528092919081815260200182805460018160011615610100020316600290048015610d1f5780601f10610cf457610100808354040283529160200191610d1f565b820191906000526020600020905b815481529060010190602001808311610d0257829003601f168201915b5050505050905082565b600a5481565b828054600181600116156101000203166002900490600052602060002090601f016020900481019282601f10610d7057805160ff1916838001178555610d9e565b82800160010185558215610d9e579182015b82811115610d9d578251825591602001919060010190610d82565b5b509050610dab9190610daf565b5090565b610dd191905b80821115610dcd576000816000905550600101610db5565b5090565b905600a165627a7a723058206217cc56f4080162d5f9ca486782f12dd525051f0304d19611252a40cc75523f0029",
  "source": "pragma solidity ^0.4.17;\r\ncontract Certificate {\r\n\r\n    struct Person {\r\n        address id;\r\n        uint no;\r\n    }\r\n\r\n    struct Verifier {\r\n        address id;\r\n        uint no;\r\n    }\r\n\r\n    struct certi {\r\n        string hash;\r\n        string certificate_string;\r\n    }\r\n\r\n    mapping(address => certi[10]) public verifiers;\r\n\r\n    mapping(address => certi[10]) public certificates;\r\n    \r\n    mapping(address => uint) public keyDetails;\r\n    \r\n    mapping(uint => Person) public Persons;\r\n\r\n    mapping(uint => Verifier) public Verifiers;\r\n\r\n    uint n=3127;\r\n    uint phin=3016;\r\n    \r\n    uint remainder;\r\n    uint pk;\r\n    \r\n    uint public personcount=0;\r\n    uint public vercount=0;\r\n\r\n    function Certificate() public payable{\r\n        keyDetails[msg.sender]=3;\r\n        keyDetails[0x397B77A261B9480235A46D92b5D57db35cF069ef]=200;\r\n        keyDetails[0xbeE549Cad789D1627D1d2c88E67d3D855D1cfCF9]=200;\r\n        keyDetails[0xA5814552D0c2A50fDC99D3e9b419aC5c04B975Ea]=200;\r\n        keyDetails[0x916c40C84d5A0FD4a3d91f025553f8592D9eA003]=200;\r\n        addPerson(msg.sender);\r\n        addVerifier(msg.sender);\r\n        // addtoArray(msg.sender,\"ABCD1234\",\"sdfdsfgfg1234\");\r\n        // addtoArray(msg.sender,\"PQRS1234\",\"sfsdgdg1234\");\r\n    }\r\n\r\n    function addPerson(address _p) private{\r\n        personcount ++;\r\n        Persons[personcount] = Person(_p,0);\r\n    }\r\n    \r\n    function addVerifier(address _p) private{\r\n        vercount ++;\r\n        Verifiers[vercount] = Verifier(_p,0);\r\n    }\r\n\r\n    function HashCalculation(uint private_key) public payable{    \r\n        \r\n        pk = keyDetails[msg.sender];\r\n        remainder = (pk*private_key)%phin;\r\n        if(remainder!=1)\r\n        {\r\n            revert();\r\n        }\r\n\r\n    }\r\n    \r\n    function addtoArray(address p, string hash, string certi_string) public payable{\r\n\r\n        for(uint i=1;i<=personcount;i++)\r\n        {\r\n            if(Persons[i].id==p)\r\n            {\r\n                break;\r\n            }\r\n        }\r\n        if(i>personcount)\r\n        {\r\n            revert();\r\n        }\r\n\r\n        certificates[p][Persons[i].no]=certi(hash,certi_string);\r\n        Persons[i].no+=1;\r\n        \r\n    }\r\n\r\n    function addCertitoVerifier(address p, string hash, string certi_string) public payable{\r\n\r\n    for(uint i=1;i<=vercount;i++)\r\n        {\r\n            if(Verifiers[i].id==p)\r\n            {\r\n                break;\r\n            }\r\n        }\r\n    if(i>vercount)\r\n        {\r\n            revert();\r\n        }\r\n\r\n        verifiers[p][Verifiers[i].no]=certi(hash,certi_string);\r\n        Verifiers[i].no+=1;\r\n        \r\n    }\r\n    \r\n}\r\n",
  "sourcePath": "G:\\Blockchain\\Certification\\contracts\\Certificate.sol",
  "compiler": {
    "name": "solc",
    "version": "0.4.24+commit.e67f0147.Emscripten.clang"
  },
  "schemaVersion": "2.0.1",
  "updatedAt": "2019-01-06T00:14:40.088Z"
}